{
  "contractName": "ERC721Enumable",
  "abi": [
    {
      "inputs": [],
      "stateMutability": "nonpayable",
      "type": "constructor"
    },
    {
      "anonymous": false,
      "inputs": [
        {
          "indexed": true,
          "internalType": "address",
          "name": "_owner",
          "type": "address"
        },
        {
          "indexed": true,
          "internalType": "address",
          "name": "_approved",
          "type": "address"
        },
        {
          "indexed": true,
          "internalType": "uint256",
          "name": "_tokenId",
          "type": "uint256"
        }
      ],
      "name": "Approval",
      "type": "event"
    },
    {
      "anonymous": false,
      "inputs": [
        {
          "indexed": true,
          "internalType": "address",
          "name": "_from",
          "type": "address"
        },
        {
          "indexed": true,
          "internalType": "address",
          "name": "_to",
          "type": "address"
        },
        {
          "indexed": true,
          "internalType": "uint256",
          "name": "_tokenId",
          "type": "uint256"
        }
      ],
      "name": "Transfer",
      "type": "event"
    },
    {
      "inputs": [
        {
          "internalType": "address",
          "name": "_to",
          "type": "address"
        },
        {
          "internalType": "uint256",
          "name": "tokenId",
          "type": "uint256"
        }
      ],
      "name": "approve",
      "outputs": [],
      "stateMutability": "nonpayable",
      "type": "function"
    },
    {
      "inputs": [
        {
          "internalType": "address",
          "name": "_owner",
          "type": "address"
        }
      ],
      "name": "balanceOf",
      "outputs": [
        {
          "internalType": "uint256",
          "name": "",
          "type": "uint256"
        }
      ],
      "stateMutability": "view",
      "type": "function"
    },
    {
      "inputs": [
        {
          "internalType": "uint256",
          "name": "_tokenId",
          "type": "uint256"
        }
      ],
      "name": "ownerOf",
      "outputs": [
        {
          "internalType": "address",
          "name": "",
          "type": "address"
        }
      ],
      "stateMutability": "view",
      "type": "function"
    },
    {
      "inputs": [
        {
          "internalType": "bytes4",
          "name": "interfaceId",
          "type": "bytes4"
        }
      ],
      "name": "supportsInterface",
      "outputs": [
        {
          "internalType": "bool",
          "name": "",
          "type": "bool"
        }
      ],
      "stateMutability": "view",
      "type": "function"
    },
    {
      "inputs": [
        {
          "internalType": "address",
          "name": "_from",
          "type": "address"
        },
        {
          "internalType": "address",
          "name": "_to",
          "type": "address"
        },
        {
          "internalType": "uint256",
          "name": "_tokenId",
          "type": "uint256"
        }
      ],
      "name": "transferFrom",
      "outputs": [],
      "stateMutability": "nonpayable",
      "type": "function"
    },
    {
      "inputs": [
        {
          "internalType": "uint256",
          "name": "index",
          "type": "uint256"
        }
      ],
      "name": "tokenByIndex",
      "outputs": [
        {
          "internalType": "uint256",
          "name": "",
          "type": "uint256"
        }
      ],
      "stateMutability": "view",
      "type": "function"
    },
    {
      "inputs": [
        {
          "internalType": "address",
          "name": "owner",
          "type": "address"
        },
        {
          "internalType": "uint256",
          "name": "index",
          "type": "uint256"
        }
      ],
      "name": "tokenOfOwnerByIndex",
      "outputs": [
        {
          "internalType": "uint256",
          "name": "",
          "type": "uint256"
        }
      ],
      "stateMutability": "view",
      "type": "function"
    },
    {
      "inputs": [],
      "name": "totalSupply",
      "outputs": [
        {
          "internalType": "uint256",
          "name": "",
          "type": "uint256"
        }
      ],
      "stateMutability": "view",
      "type": "function"
    }
  ],
  "bytecode": "0x60806040523480156200001157600080fd5b50620000437f01ffc9a7a5cef8baa21ed3c5c0d7e23accb804b619e9333b597f47a0d84076e26200013360201b60201c565b620000b87f22c82707ba960a14c7592ffb6b8cfaa073fed0048a84cc7fa41f6b5bd8e7f2e47f3a6eb71757dfc6e784c1459d26270140c2c147d95ca985c80026fc5301c3eca17f8a7e378434598edc36d108689a030cbc9d7d465de4f74c71bae1028eed6a881b18186200013360201b60201c565b6200012d7fbc56e7aea2cdacd3a7bc58cc41882b11f850ebe6b3e35823707169729769246a7f6da5e1284143cdd2d15038a59bde3be031250f00291d64494c12d967b3a4e0c37fc53637662700e6c65104059db8bba34439e0c32483ab7c34e3ccae52c739549518186200013360201b60201c565b6200028e565b63ffffffff60e01b817bffffffffffffffffffffffffffffffffffffffffffffffffffffffff191614156200019f576040517f08c379a0000000000000000000000000000000000000000000000000000000008152600401620001969062000232565b60405180910390fd5b6001600080837bffffffffffffffffffffffffffffffffffffffffffffffffffffffff19167bffffffffffffffffffffffffffffffffffffffffffffffffffffffff1916815260200190815260200160002060006101000a81548160ff02191690831515021790555050565b60006200021a60198362000254565b9150620002278262000265565b602082019050919050565b600060208201905081810360008301526200024d816200020b565b9050919050565b600082825260208201905092915050565b7f496e76616c696420696e74657266616365207265717565737400000000000000600082015250565b6112bb806200029e6000396000f3fe608060405234801561001057600080fd5b50600436106100885760003560e01c80632f745c591161005b5780632f745c59146101135780634f6ccce7146101435780636352211e1461017357806370a08231146101a357610088565b806301ffc9a71461008d578063095ea7b3146100bd57806318160ddd146100d957806323b872dd146100f7575b600080fd5b6100a760048036038101906100a29190610b6c565b6101d3565b6040516100b49190610d49565b60405180910390f35b6100d760048036038101906100d29190610b2c565b61023a565b005b6100e16103d6565b6040516100ee9190610e84565b60405180910390f35b610111600480360381019061010c9190610ad9565b6103e3565b005b61012d60048036038101906101289190610b2c565b610406565b60405161013a9190610e84565b60405180910390f35b61015d60048036038101906101589190610b99565b6104b6565b60405161016a9190610e84565b60405180910390f35b61018d60048036038101906101889190610b99565b610527565b60405161019a9190610d2e565b60405180910390f35b6101bd60048036038101906101b89190610aac565b6105d9565b6040516101ca9190610e84565b60405180910390f35b6000806000837bffffffffffffffffffffffffffffffffffffffffffffffffffffffff19167bffffffffffffffffffffffffffffffffffffffffffffffffffffffff1916815260200190815260200160002060009054906101000a900460ff169050919050565b600061024582610527565b90508073ffffffffffffffffffffffffffffffffffffffff168373ffffffffffffffffffffffffffffffffffffffff1614156102b6576040517f08c379a00000000000000000000000000000000000000000000000000000000081526004016102ad90610d64565b60405180910390fd5b8073ffffffffffffffffffffffffffffffffffffffff163373ffffffffffffffffffffffffffffffffffffffff1614610324576040517f08c379a000000000000000000000000000000000000000000000000000000000815260040161031b90610e04565b60405180910390fd5b826003600084815260200190815260200160002060006101000a81548173ffffffffffffffffffffffffffffffffffffffff021916908373ffffffffffffffffffffffffffffffffffffffff160217905550818373ffffffffffffffffffffffffffffffffffffffff168273ffffffffffffffffffffffffffffffffffffffff167f8c5be1e5ebec7d5bd14f71427d1e84f3dd0314c0f7b2291e5b200ac8c7c3b92560405160405180910390a4505050565b6000600480549050905090565b6103ed3382610698565b6103f657600080fd5b610401838383610727565b505050565b6000610411836105d9565b8210610452576040517f08c379a000000000000000000000000000000000000000000000000000000000815260040161044990610dc4565b60405180910390fd5b600660008473ffffffffffffffffffffffffffffffffffffffff1673ffffffffffffffffffffffffffffffffffffffff16815260200190815260200160002082815481106104a3576104a2610fdd565b5b9060005260206000200154905092915050565b60006104c06103d6565b8210610501576040517f08c379a00000000000000000000000000000000000000000000000000000000081526004016104f890610da4565b60405180910390fd5b6004828154811061051557610514610fdd565b5b90600052602060002001549050919050565b6000806001600084815260200190815260200160002060009054906101000a900473ffffffffffffffffffffffffffffffffffffffff169050600073ffffffffffffffffffffffffffffffffffffffff168173ffffffffffffffffffffffffffffffffffffffff1614156105d0576040517f08c379a00000000000000000000000000000000000000000000000000000000081526004016105c790610d84565b60405180910390fd5b80915050919050565b60008073ffffffffffffffffffffffffffffffffffffffff168273ffffffffffffffffffffffffffffffffffffffff16141561064a576040517f08c379a000000000000000000000000000000000000000000000000000000000815260040161064190610d84565b60405180910390fd5b610691600260008473ffffffffffffffffffffffffffffffffffffffff1673ffffffffffffffffffffffffffffffffffffffff16815260200190815260200160002061094d565b9050919050565b60006106a38261095b565b6106e2576040517f08c379a00000000000000000000000000000000000000000000000000000000081526004016106d990610e64565b60405180910390fd5b60006106ed83610527565b90508073ffffffffffffffffffffffffffffffffffffffff168473ffffffffffffffffffffffffffffffffffffffff161491505092915050565b600073ffffffffffffffffffffffffffffffffffffffff168273ffffffffffffffffffffffffffffffffffffffff161415610797576040517f08c379a000000000000000000000000000000000000000000000000000000000815260040161078e90610de4565b60405180910390fd5b8273ffffffffffffffffffffffffffffffffffffffff166107b782610527565b73ffffffffffffffffffffffffffffffffffffffff161461080d576040517f08c379a000000000000000000000000000000000000000000000000000000000815260040161080490610e24565b60405180910390fd5b610854600260008573ffffffffffffffffffffffffffffffffffffffff1673ffffffffffffffffffffffffffffffffffffffff1681526020019081526020016000206109cd565b61089b600260008473ffffffffffffffffffffffffffffffffffffffff1673ffffffffffffffffffffffffffffffffffffffff1681526020019081526020016000206109f0565b816001600083815260200190815260200160002060006101000a81548173ffffffffffffffffffffffffffffffffffffffff021916908373ffffffffffffffffffffffffffffffffffffffff160217905550808273ffffffffffffffffffffffffffffffffffffffff168473ffffffffffffffffffffffffffffffffffffffff167fddf252ad1be2c89b69c2b068fc378daa952ba7f163c4a11628f55a4df523b3ef60405160405180910390a4505050565b600081600001549050919050565b6000806001600084815260200190815260200160002060009054906101000a900473ffffffffffffffffffffffffffffffffffffffff169050600073ffffffffffffffffffffffffffffffffffffffff168173ffffffffffffffffffffffffffffffffffffffff161415915050919050565b6109e560018260000154610a0f90919063ffffffff16565b816000018190555050565b6001816000016000828254610a059190610eb0565b9250508190555050565b6000808284610a1e9190610f06565b905083831115610a63576040517f08c379a0000000000000000000000000000000000000000000000000000000008152600401610a5a90610e44565b60405180910390fd5b8091505092915050565b600081359050610a7c81611240565b92915050565b600081359050610a9181611257565b92915050565b600081359050610aa68161126e565b92915050565b600060208284031215610ac257610ac161100c565b5b6000610ad084828501610a6d565b91505092915050565b600080600060608486031215610af257610af161100c565b5b6000610b0086828701610a6d565b9350506020610b1186828701610a6d565b9250506040610b2286828701610a97565b9150509250925092565b60008060408385031215610b4357610b4261100c565b5b6000610b5185828601610a6d565b9250506020610b6285828601610a97565b9150509250929050565b600060208284031215610b8257610b8161100c565b5b6000610b9084828501610a82565b91505092915050565b600060208284031215610baf57610bae61100c565b5b6000610bbd84828501610a97565b91505092915050565b610bcf81610f3a565b82525050565b610bde81610f4c565b82525050565b6000610bf1602183610e9f565b9150610bfc82611011565b604082019050919050565b6000610c14602283610e9f565b9150610c1f82611060565b604082019050919050565b6000610c37601e83610e9f565b9150610c42826110af565b602082019050919050565b6000610c5a601d83610e9f565b9150610c65826110d8565b602082019050919050565b6000610c7d602b83610e9f565b9150610c8882611101565b604082019050919050565b6000610ca0602c83610e9f565b9150610cab82611150565b604082019050919050565b6000610cc3603483610e9f565b9150610cce8261119f565b604082019050919050565b6000610ce6601e83610e9f565b9150610cf1826111ee565b602082019050919050565b6000610d09601483610e9f565b9150610d1482611217565b602082019050919050565b610d2881610fa4565b82525050565b6000602082019050610d436000830184610bc6565b92915050565b6000602082019050610d5e6000830184610bd5565b92915050565b60006020820190508181036000830152610d7d81610be4565b9050919050565b60006020820190508181036000830152610d9d81610c07565b9050919050565b60006020820190508181036000830152610dbd81610c2a565b9050919050565b60006020820190508181036000830152610ddd81610c4d565b9050919050565b60006020820190508181036000830152610dfd81610c70565b9050919050565b60006020820190508181036000830152610e1d81610c93565b9050919050565b60006020820190508181036000830152610e3d81610cb6565b9050919050565b60006020820190508181036000830152610e5d81610cd9565b9050919050565b60006020820190508181036000830152610e7d81610cfc565b9050919050565b6000602082019050610e996000830184610d1f565b92915050565b600082825260208201905092915050565b6000610ebb82610fa4565b9150610ec683610fa4565b9250827fffffffffffffffffffffffffffffffffffffffffffffffffffffffffffffffff03821115610efb57610efa610fae565b5b828201905092915050565b6000610f1182610fa4565b9150610f1c83610fa4565b925082821015610f2f57610f2e610fae565b5b828203905092915050565b6000610f4582610f84565b9050919050565b60008115159050919050565b60007fffffffff0000000000000000000000000000000000000000000000000000000082169050919050565b600073ffffffffffffffffffffffffffffffffffffffff82169050919050565b6000819050919050565b7f4e487b7100000000000000000000000000000000000000000000000000000000600052601160045260246000fd5b7f4e487b7100000000000000000000000000000000000000000000000000000000600052603260045260246000fd5b600080fd5b7f4572726f72202d20617070726f76616c20746f2063757272656e74206f776e6560008201527f7200000000000000000000000000000000000000000000000000000000000000602082015250565b7f6f776e657220717565727920666f72206e6f6e2d6578697374656e7420746f6b60008201527f656e000000000000000000000000000000000000000000000000000000000000602082015250565b7f676c6f62616c20696e646578206973206f7574206f6620626f756e6473210000600082015250565b7f6f776e657220696e646578206973206f7574206f6620626f756e647321000000600082015250565b7f4572726f72202d20455243373231205472616e7366657220746f20746865207a60008201527f65726f2061646472657373000000000000000000000000000000000000000000602082015250565b7f43757272656e742063616c6c6572206973206e6f7420746865206f776e65722060008201527f6f662074686520746f6b656e0000000000000000000000000000000000000000602082015250565b7f547279696e6720746f207472616e73666572206120746f6b656e20746865206160008201527f64647265737320646f6573206e6f74206f776e21000000000000000000000000602082015250565b7f536166654d6174683a205375627472616374696f6e204f766572666c6f770000600082015250565b7f746f6b656e20646f6573206e6f74206578697374000000000000000000000000600082015250565b61124981610f3a565b811461125457600080fd5b50565b61126081610f58565b811461126b57600080fd5b50565b61127781610fa4565b811461128257600080fd5b5056fea2646970667358221220425a8a21f689b5f92b53a9c9392dae33e1ae401aa43f3a8fe654c508498e473364736f6c63430008070033",
  "immutableReferences": {},
  "source": "// SPDX-License-Identifier: MIT\npragma solidity ^0.8.0;\n\nimport './ERC721.sol';\nimport './interfaces/IERC721Enumable.sol';\n\ncontract ERC721Enumable is IERC721Enumable, ERC721{\n\n    uint256[] private _allTokens;\n\n    mapping (uint256 => uint256) private _allTokensIndex;\n\n    mapping (address => uint256[]) private _ownedTokens;\n\n    mapping (uint256 => uint256) private _ownedTokensIndex;\n\n    constructor() {\n        _registerInterface(bytes4(keccak256('totalSupply(bytes4)')^\n        keccak256('tokenByIndex(bytes4)')^keccak256('tokenOwnerByIndex(bytes4)')));\n    }\n\n    function _mint(address to, uint256 tokenId) internal override(ERC721) {\n        super._mint(to, tokenId);\n        \n        _addTokensAllTokenEnumeration(tokenId);\n        _addTokensToOwnerEnumeration(to, tokenId);\n    }\n\n    function _addTokensAllTokenEnumeration(uint256 tokenId) private {\n        _allTokensIndex[tokenId] = _allTokens.length;\n        _allTokens.push(tokenId);\n    }\n\n    function _addTokensToOwnerEnumeration(address to, uint256 tokenId) private {\n        _ownedTokensIndex[tokenId] = _ownedTokens[to].length;\n        _ownedTokens[to].push(tokenId);\n    }\n\n    function tokenByIndex(uint256 index) public override view returns(uint256) {\n        require(index < totalSupply(), 'global index is out of bounds!');\n        return _allTokens[index];\n    }\n\n    function tokenOfOwnerByIndex(address owner, uint index) public override view returns(uint256) {\n        require(index < balanceOf(owner), 'owner index is out of bounds!');\n        return _ownedTokens[owner][index];\n    }\n\n    function totalSupply() public override view returns(uint256) {\n        return _allTokens.length;\n    }\n}",
  "sourcePath": "/home/dongju/Desktop/codestates/project/beb_02_JMJ/client/src/contracts/ERC721Enumable.sol",
  "compiler": {
    "name": "solc",
    "version": "0.8.7+commit.e28d00a7.Emscripten.clang"
  },
  "schemaVersion": "3.4.4",
  "updatedAt": "2022-02-17T02:25:31.114Z",
  "devdoc": {
    "kind": "dev",
    "methods": {},
    "version": 1
  },
  "userdoc": {
    "kind": "user",
    "methods": {},
    "version": 1
  }
}