{
  "contractName": "jmjNFT",
  "abi": [
    {
      "inputs": [],
      "stateMutability": "nonpayable",
      "type": "constructor"
    },
    {
      "anonymous": false,
      "inputs": [
        {
          "indexed": true,
          "internalType": "address",
          "name": "_owner",
          "type": "address"
        },
        {
          "indexed": true,
          "internalType": "address",
          "name": "_approved",
          "type": "address"
        },
        {
          "indexed": true,
          "internalType": "uint256",
          "name": "_tokenId",
          "type": "uint256"
        }
      ],
      "name": "Approval",
      "type": "event"
    },
    {
      "anonymous": false,
      "inputs": [
        {
          "indexed": true,
          "internalType": "address",
          "name": "_from",
          "type": "address"
        },
        {
          "indexed": true,
          "internalType": "address",
          "name": "_to",
          "type": "address"
        },
        {
          "indexed": true,
          "internalType": "uint256",
          "name": "_tokenId",
          "type": "uint256"
        }
      ],
      "name": "Transfer",
      "type": "event"
    },
    {
      "inputs": [
        {
          "internalType": "address",
          "name": "_to",
          "type": "address"
        },
        {
          "internalType": "uint256",
          "name": "tokenId",
          "type": "uint256"
        }
      ],
      "name": "approve",
      "outputs": [],
      "stateMutability": "nonpayable",
      "type": "function"
    },
    {
      "inputs": [
        {
          "internalType": "address",
          "name": "_owner",
          "type": "address"
        }
      ],
      "name": "balanceOf",
      "outputs": [
        {
          "internalType": "uint256",
          "name": "",
          "type": "uint256"
        }
      ],
      "stateMutability": "view",
      "type": "function",
      "constant": true
    },
    {
      "inputs": [
        {
          "internalType": "uint256",
          "name": "",
          "type": "uint256"
        }
      ],
      "name": "jmjnft",
      "outputs": [
        {
          "internalType": "string",
          "name": "",
          "type": "string"
        }
      ],
      "stateMutability": "view",
      "type": "function",
      "constant": true
    },
    {
      "inputs": [],
      "name": "name",
      "outputs": [
        {
          "internalType": "string",
          "name": "",
          "type": "string"
        }
      ],
      "stateMutability": "view",
      "type": "function",
      "constant": true
    },
    {
      "inputs": [
        {
          "internalType": "uint256",
          "name": "_tokenId",
          "type": "uint256"
        }
      ],
      "name": "ownerOf",
      "outputs": [
        {
          "internalType": "address",
          "name": "",
          "type": "address"
        }
      ],
      "stateMutability": "view",
      "type": "function",
      "constant": true
    },
    {
      "inputs": [
        {
          "internalType": "bytes4",
          "name": "interfaceId",
          "type": "bytes4"
        }
      ],
      "name": "supportsInterface",
      "outputs": [
        {
          "internalType": "bool",
          "name": "",
          "type": "bool"
        }
      ],
      "stateMutability": "view",
      "type": "function",
      "constant": true
    },
    {
      "inputs": [],
      "name": "symbol",
      "outputs": [
        {
          "internalType": "string",
          "name": "",
          "type": "string"
        }
      ],
      "stateMutability": "view",
      "type": "function",
      "constant": true
    },
    {
      "inputs": [
        {
          "internalType": "uint256",
          "name": "index",
          "type": "uint256"
        }
      ],
      "name": "tokenByIndex",
      "outputs": [
        {
          "internalType": "uint256",
          "name": "",
          "type": "uint256"
        }
      ],
      "stateMutability": "view",
      "type": "function",
      "constant": true
    },
    {
      "inputs": [
        {
          "internalType": "address",
          "name": "owner",
          "type": "address"
        },
        {
          "internalType": "uint256",
          "name": "index",
          "type": "uint256"
        }
      ],
      "name": "tokenOfOwnerByIndex",
      "outputs": [
        {
          "internalType": "uint256",
          "name": "",
          "type": "uint256"
        }
      ],
      "stateMutability": "view",
      "type": "function",
      "constant": true
    },
    {
      "inputs": [],
      "name": "totalSupply",
      "outputs": [
        {
          "internalType": "uint256",
          "name": "",
          "type": "uint256"
        }
      ],
      "stateMutability": "view",
      "type": "function",
      "constant": true
    },
    {
      "inputs": [
        {
          "internalType": "address",
          "name": "_from",
          "type": "address"
        },
        {
          "internalType": "address",
          "name": "_to",
          "type": "address"
        },
        {
          "internalType": "uint256",
          "name": "_tokenId",
          "type": "uint256"
        }
      ],
      "name": "transferFrom",
      "outputs": [],
      "stateMutability": "nonpayable",
      "type": "function"
    },
    {
      "inputs": [
        {
          "internalType": "string",
          "name": "_name",
          "type": "string"
        }
      ],
      "name": "mint",
      "outputs": [],
      "stateMutability": "nonpayable",
      "type": "function"
    }
  ],
  "bytecode": "0x60806040523480156200001157600080fd5b506040518060400160405280600681526020017f6a6d6a4e465400000000000000000000000000000000000000000000000000008152506040518060400160405280600381526020017f4a4d4a00000000000000000000000000000000000000000000000000000000008152508181620000b17f01ffc9a7a5cef8baa21ed3c5c0d7e23accb804b619e9333b597f47a0d84076e26200022a60201b60201c565b620001047f13b182f4c0e5b2efbac0efe6cf6d756c8b89f4b79c5707a043ed9ea740574ee97f7feaf19471f34a12a7eaf32d5f3090aa2260ea8624dc8a138e74e0bf0f623076186200022a60201b60201c565b81600190805190602001906200011c92919062000302565b5080600290805190602001906200013592919062000302565b505050620001ad7f22c82707ba960a14c7592ffb6b8cfaa073fed0048a84cc7fa41f6b5bd8e7f2e47f3a6eb71757dfc6e784c1459d26270140c2c147d95ca985c80026fc5301c3eca17f8a7e378434598edc36d108689a030cbc9d7d465de4f74c71bae1028eed6a881b18186200022a60201b60201c565b620002227fbc56e7aea2cdacd3a7bc58cc41882b11f850ebe6b3e35823707169729769246a7f6da5e1284143cdd2d15038a59bde3be031250f00291d64494c12d967b3a4e0c37fc53637662700e6c65104059db8bba34439e0c32483ab7c34e3ccae52c739549518186200022a60201b60201c565b50506200049a565b63ffffffff60e01b817bffffffffffffffffffffffffffffffffffffffffffffffffffffffff1916141562000296576040517f08c379a00000000000000000000000000000000000000000000000000000000081526004016200028d90620003d9565b60405180910390fd5b6001600080837bffffffffffffffffffffffffffffffffffffffffffffffffffffffff19167bffffffffffffffffffffffffffffffffffffffffffffffffffffffff1916815260200190815260200160002060006101000a81548160ff02191690831515021790555050565b82805462000310906200040c565b90600052602060002090601f01602090048101928262000334576000855562000380565b82601f106200034f57805160ff191683800117855562000380565b8280016001018555821562000380579182015b828111156200037f57825182559160200191906001019062000362565b5b5090506200038f919062000393565b5090565b5b80821115620003ae57600081600090555060010162000394565b5090565b6000620003c1601983620003fb565b9150620003ce8262000471565b602082019050919050565b60006020820190508181036000830152620003f481620003b2565b9050919050565b600082825260208201905092915050565b600060028204905060018216806200042557607f821691505b602082108114156200043c576200043b62000442565b5b50919050565b7f4e487b7100000000000000000000000000000000000000000000000000000000600052602260045260246000fd5b7f496e76616c696420696e74657266616365207265717565737400000000000000600082015250565b611e1a80620004aa6000396000f3fe608060405234801561001057600080fd5b50600436106100b45760003560e01c80634f6ccce7116100715780634f6ccce71461018d5780636352211e146101bd57806370a08231146101ed57806395d89b411461021d578063d85d3d271461023b578063e3d7259e14610257576100b4565b806301ffc9a7146100b957806306fdde03146100e9578063095ea7b31461010757806318160ddd1461012357806323b872dd146101415780632f745c591461015d575b600080fd5b6100d360048036038101906100ce91906112e6565b610287565b6040516100e091906115f6565b60405180910390f35b6100f16102ee565b6040516100fe9190611611565b60405180910390f35b610121600480360381019061011c91906112a6565b610380565b005b61012b61051c565b60405161013891906117b3565b60405180910390f35b61015b60048036038101906101569190611253565b610529565b005b610177600480360381019061017291906112a6565b61054c565b60405161018491906117b3565b60405180910390f35b6101a760048036038101906101a2919061135c565b6105fc565b6040516101b491906117b3565b60405180910390f35b6101d760048036038101906101d2919061135c565b61066d565b6040516101e491906115db565b60405180910390f35b61020760048036038101906102029190611226565b61071f565b60405161021491906117b3565b60405180910390f35b6102256107de565b6040516102329190611611565b60405180910390f35b61025560048036038101906102509190611313565b610870565b005b610271600480360381019061026c919061135c565b610973565b60405161027e9190611611565b60405180910390f35b6000806000837bffffffffffffffffffffffffffffffffffffffffffffffffffffffff19167bffffffffffffffffffffffffffffffffffffffffffffffffffffffff1916815260200190815260200160002060009054906101000a900460ff169050919050565b6060600180546102fd9061198b565b80601f01602080910402602001604051908101604052809291908181526020018280546103299061198b565b80156103765780601f1061034b57610100808354040283529160200191610376565b820191906000526020600020905b81548152906001019060200180831161035957829003601f168201915b5050505050905090565b600061038b8261066d565b90508073ffffffffffffffffffffffffffffffffffffffff168373ffffffffffffffffffffffffffffffffffffffff1614156103fc576040517f08c379a00000000000000000000000000000000000000000000000000000000081526004016103f390611633565b60405180910390fd5b8073ffffffffffffffffffffffffffffffffffffffff163373ffffffffffffffffffffffffffffffffffffffff161461046a576040517f08c379a0000000000000000000000000000000000000000000000000000000008152600401610461906116f3565b60405180910390fd5b826005600084815260200190815260200160002060006101000a81548173ffffffffffffffffffffffffffffffffffffffff021916908373ffffffffffffffffffffffffffffffffffffffff160217905550818373ffffffffffffffffffffffffffffffffffffffff168273ffffffffffffffffffffffffffffffffffffffff167f8c5be1e5ebec7d5bd14f71427d1e84f3dd0314c0f7b2291e5b200ac8c7c3b92560405160405180910390a4505050565b6000600680549050905090565b6105333382610a1f565b61053c57600080fd5b610547838383610aae565b505050565b60006105578361071f565b8210610598576040517f08c379a000000000000000000000000000000000000000000000000000000000815260040161058f906116b3565b60405180910390fd5b600860008473ffffffffffffffffffffffffffffffffffffffff1673ffffffffffffffffffffffffffffffffffffffff16815260200190815260200160002082815481106105e9576105e8611a4c565b5b9060005260206000200154905092915050565b600061060661051c565b8210610647576040517f08c379a000000000000000000000000000000000000000000000000000000000815260040161063e90611693565b60405180910390fd5b6006828154811061065b5761065a611a4c565b5b90600052602060002001549050919050565b6000806003600084815260200190815260200160002060009054906101000a900473ffffffffffffffffffffffffffffffffffffffff169050600073ffffffffffffffffffffffffffffffffffffffff168173ffffffffffffffffffffffffffffffffffffffff161415610716576040517f08c379a000000000000000000000000000000000000000000000000000000000815260040161070d90611653565b60405180910390fd5b80915050919050565b60008073ffffffffffffffffffffffffffffffffffffffff168273ffffffffffffffffffffffffffffffffffffffff161415610790576040517f08c379a000000000000000000000000000000000000000000000000000000000815260040161078790611653565b60405180910390fd5b6107d7600460008473ffffffffffffffffffffffffffffffffffffffff1673ffffffffffffffffffffffffffffffffffffffff168152602001908152602001600020610cd4565b9050919050565b6060600280546107ed9061198b565b80601f01602080910402602001604051908101604052809291908181526020018280546108199061198b565b80156108665780601f1061083b57610100808354040283529160200191610866565b820191906000526020600020905b81548152906001019060200180831161084957829003601f168201915b5050505050905090565b600b8160405161088091906115c4565b908152602001604051809103902060009054906101000a900460ff16156108dc576040517f08c379a00000000000000000000000000000000000000000000000000000000081526004016108d390611773565b60405180910390fd5b600a819080600181540180825580915050600190039060005260206000200160009091909190915090805190602001906109179291906110d4565b5060006001600a8054905061092c91906118a1565b90506109383382610ce2565b6001600b8360405161094a91906115c4565b908152602001604051809103902060006101000a81548160ff0219169083151502179055505050565b600a818154811061098357600080fd5b90600052602060002001600091509050805461099e9061198b565b80601f01602080910402602001604051908101604052809291908181526020018280546109ca9061198b565b8015610a175780601f106109ec57610100808354040283529160200191610a17565b820191906000526020600020905b8154815290600101906020018083116109fa57829003601f168201915b505050505081565b6000610a2a82610d03565b610a69576040517f08c379a0000000000000000000000000000000000000000000000000000000008152600401610a6090611793565b60405180910390fd5b6000610a748361066d565b90508073ffffffffffffffffffffffffffffffffffffffff168473ffffffffffffffffffffffffffffffffffffffff161491505092915050565b600073ffffffffffffffffffffffffffffffffffffffff168273ffffffffffffffffffffffffffffffffffffffff161415610b1e576040517f08c379a0000000000000000000000000000000000000000000000000000000008152600401610b15906116d3565b60405180910390fd5b8273ffffffffffffffffffffffffffffffffffffffff16610b3e8261066d565b73ffffffffffffffffffffffffffffffffffffffff1614610b94576040517f08c379a0000000000000000000000000000000000000000000000000000000008152600401610b8b90611713565b60405180910390fd5b610bdb600460008573ffffffffffffffffffffffffffffffffffffffff1673ffffffffffffffffffffffffffffffffffffffff168152602001908152602001600020610d75565b610c22600460008473ffffffffffffffffffffffffffffffffffffffff1673ffffffffffffffffffffffffffffffffffffffff168152602001908152602001600020610d98565b816003600083815260200190815260200160002060006101000a81548173ffffffffffffffffffffffffffffffffffffffff021916908373ffffffffffffffffffffffffffffffffffffffff160217905550808273ffffffffffffffffffffffffffffffffffffffff168473ffffffffffffffffffffffffffffffffffffffff167fddf252ad1be2c89b69c2b068fc378daa952ba7f163c4a11628f55a4df523b3ef60405160405180910390a4505050565b600081600001549050919050565b610cec8282610db7565b610cf581610f69565b610cff8282610fb2565b5050565b6000806003600084815260200190815260200160002060009054906101000a900473ffffffffffffffffffffffffffffffffffffffff169050600073ffffffffffffffffffffffffffffffffffffffff168173ffffffffffffffffffffffffffffffffffffffff161415915050919050565b610d8d6001826000015461107690919063ffffffff16565b816000018190555050565b6001816000016000828254610dad919061184b565b9250508190555050565b600073ffffffffffffffffffffffffffffffffffffffff168273ffffffffffffffffffffffffffffffffffffffff161415610e27576040517f08c379a0000000000000000000000000000000000000000000000000000000008152600401610e1e90611753565b60405180910390fd5b610e3081610d03565b15610e70576040517f08c379a0000000000000000000000000000000000000000000000000000000008152600401610e6790611673565b60405180910390fd5b816003600083815260200190815260200160002060006101000a81548173ffffffffffffffffffffffffffffffffffffffff021916908373ffffffffffffffffffffffffffffffffffffffff160217905550610f09600460008473ffffffffffffffffffffffffffffffffffffffff1673ffffffffffffffffffffffffffffffffffffffff168152602001908152602001600020610d98565b808273ffffffffffffffffffffffffffffffffffffffff16600073ffffffffffffffffffffffffffffffffffffffff167fddf252ad1be2c89b69c2b068fc378daa952ba7f163c4a11628f55a4df523b3ef60405160405180910390a45050565b6006805490506007600083815260200190815260200160002081905550600681908060018154018082558091505060019003906000526020600020016000909190919091505550565b600860008373ffffffffffffffffffffffffffffffffffffffff1673ffffffffffffffffffffffffffffffffffffffff168152602001908152602001600020805490506009600083815260200190815260200160002081905550600860008373ffffffffffffffffffffffffffffffffffffffff1673ffffffffffffffffffffffffffffffffffffffff1681526020019081526020016000208190806001815401808255809150506001900390600052602060002001600090919091909150555050565b600080828461108591906118a1565b9050838311156110ca576040517f08c379a00000000000000000000000000000000000000000000000000000000081526004016110c190611733565b60405180910390fd5b8091505092915050565b8280546110e09061198b565b90600052602060002090601f0160209004810192826111025760008555611149565b82601f1061111b57805160ff1916838001178555611149565b82800160010185558215611149579182015b8281111561114857825182559160200191906001019061112d565b5b509050611156919061115a565b5090565b5b8082111561117357600081600090555060010161115b565b5090565b600061118a611185846117f3565b6117ce565b9050828152602081018484840111156111a6576111a5611aaf565b5b6111b1848285611949565b509392505050565b6000813590506111c881611d9f565b92915050565b6000813590506111dd81611db6565b92915050565b600082601f8301126111f8576111f7611aaa565b5b8135611208848260208601611177565b91505092915050565b60008135905061122081611dcd565b92915050565b60006020828403121561123c5761123b611ab9565b5b600061124a848285016111b9565b91505092915050565b60008060006060848603121561126c5761126b611ab9565b5b600061127a868287016111b9565b935050602061128b868287016111b9565b925050604061129c86828701611211565b9150509250925092565b600080604083850312156112bd576112bc611ab9565b5b60006112cb858286016111b9565b92505060206112dc85828601611211565b9150509250929050565b6000602082840312156112fc576112fb611ab9565b5b600061130a848285016111ce565b91505092915050565b60006020828403121561132957611328611ab9565b5b600082013567ffffffffffffffff81111561134757611346611ab4565b5b611353848285016111e3565b91505092915050565b60006020828403121561137257611371611ab9565b5b600061138084828501611211565b91505092915050565b611392816118d5565b82525050565b6113a1816118e7565b82525050565b60006113b282611824565b6113bc818561182f565b93506113cc818560208601611958565b6113d581611abe565b840191505092915050565b60006113eb82611824565b6113f58185611840565b9350611405818560208601611958565b80840191505092915050565b600061141e60218361182f565b915061142982611acf565b604082019050919050565b600061144160228361182f565b915061144c82611b1e565b604082019050919050565b6000611464601c8361182f565b915061146f82611b6d565b602082019050919050565b6000611487601e8361182f565b915061149282611b96565b602082019050919050565b60006114aa601d8361182f565b91506114b582611bbf565b602082019050919050565b60006114cd602b8361182f565b91506114d882611be8565b604082019050919050565b60006114f0602c8361182f565b91506114fb82611c37565b604082019050919050565b600061151360348361182f565b915061151e82611c86565b604082019050919050565b6000611536601e8361182f565b915061154182611cd5565b602082019050919050565b600061155960238361182f565b915061156482611cfe565b604082019050919050565b600061157c601a8361182f565b915061158782611d4d565b602082019050919050565b600061159f60148361182f565b91506115aa82611d76565b602082019050919050565b6115be8161193f565b82525050565b60006115d082846113e0565b915081905092915050565b60006020820190506115f06000830184611389565b92915050565b600060208201905061160b6000830184611398565b92915050565b6000602082019050818103600083015261162b81846113a7565b905092915050565b6000602082019050818103600083015261164c81611411565b9050919050565b6000602082019050818103600083015261166c81611434565b9050919050565b6000602082019050818103600083015261168c81611457565b9050919050565b600060208201905081810360008301526116ac8161147a565b9050919050565b600060208201905081810360008301526116cc8161149d565b9050919050565b600060208201905081810360008301526116ec816114c0565b9050919050565b6000602082019050818103600083015261170c816114e3565b9050919050565b6000602082019050818103600083015261172c81611506565b9050919050565b6000602082019050818103600083015261174c81611529565b9050919050565b6000602082019050818103600083015261176c8161154c565b9050919050565b6000602082019050818103600083015261178c8161156f565b9050919050565b600060208201905081810360008301526117ac81611592565b9050919050565b60006020820190506117c860008301846115b5565b92915050565b60006117d86117e9565b90506117e482826119bd565b919050565b6000604051905090565b600067ffffffffffffffff82111561180e5761180d611a7b565b5b61181782611abe565b9050602081019050919050565b600081519050919050565b600082825260208201905092915050565b600081905092915050565b60006118568261193f565b91506118618361193f565b9250827fffffffffffffffffffffffffffffffffffffffffffffffffffffffffffffffff03821115611896576118956119ee565b5b828201905092915050565b60006118ac8261193f565b91506118b78361193f565b9250828210156118ca576118c96119ee565b5b828203905092915050565b60006118e08261191f565b9050919050565b60008115159050919050565b60007fffffffff0000000000000000000000000000000000000000000000000000000082169050919050565b600073ffffffffffffffffffffffffffffffffffffffff82169050919050565b6000819050919050565b82818337600083830152505050565b60005b8381101561197657808201518184015260208101905061195b565b83811115611985576000848401525b50505050565b600060028204905060018216806119a357607f821691505b602082108114156119b7576119b6611a1d565b5b50919050565b6119c682611abe565b810181811067ffffffffffffffff821117156119e5576119e4611a7b565b5b80604052505050565b7f4e487b7100000000000000000000000000000000000000000000000000000000600052601160045260246000fd5b7f4e487b7100000000000000000000000000000000000000000000000000000000600052602260045260246000fd5b7f4e487b7100000000000000000000000000000000000000000000000000000000600052603260045260246000fd5b7f4e487b7100000000000000000000000000000000000000000000000000000000600052604160045260246000fd5b600080fd5b600080fd5b600080fd5b600080fd5b6000601f19601f8301169050919050565b7f4572726f72202d20617070726f76616c20746f2063757272656e74206f776e6560008201527f7200000000000000000000000000000000000000000000000000000000000000602082015250565b7f6f776e657220717565727920666f72206e6f6e2d6578697374656e7420746f6b60008201527f656e000000000000000000000000000000000000000000000000000000000000602082015250565b7f4552433732313a20746f6b656e20616c7265616479206d696e74656400000000600082015250565b7f676c6f62616c20696e646578206973206f7574206f6620626f756e6473210000600082015250565b7f6f776e657220696e646578206973206f7574206f6620626f756e647321000000600082015250565b7f4572726f72202d20455243373231205472616e7366657220746f20746865207a60008201527f65726f2061646472657373000000000000000000000000000000000000000000602082015250565b7f43757272656e742063616c6c6572206973206e6f7420746865206f776e65722060008201527f6f662074686520746f6b656e0000000000000000000000000000000000000000602082015250565b7f547279696e6720746f207472616e73666572206120746f6b656e20746865206160008201527f64647265737320646f6573206e6f74206f776e21000000000000000000000000602082015250565b7f536166654d6174683a205375627472616374696f6e204f766572666c6f770000600082015250565b7f4552433732313a206d696e74696e6720746f20746865207a65726f206164647260008201527f6573730000000000000000000000000000000000000000000000000000000000602082015250565b7f4572726f72202d206e667420616c726561647920657869737473000000000000600082015250565b7f746f6b656e20646f6573206e6f74206578697374000000000000000000000000600082015250565b611da8816118d5565b8114611db357600080fd5b50565b611dbf816118f3565b8114611dca57600080fd5b50565b611dd68161193f565b8114611de157600080fd5b5056fea26469706673582212207fcd4a953349b37fa6f962a7eddb6aaca4c00eeb595079b5e8ef5219d769254a64736f6c63430008070033",
  "immutableReferences": {},
  "source": "// SPDX-License-Identifier: MIT\npragma solidity ^0.8.0;\n\nimport \"./ERC721Connector.sol\";\n\ncontract jmjNFT is ERC721Connector{\n\n    string[] public jmjnft;\n\n    mapping(string => bool) _jmjnftExists;\n\n    function mint(string memory _name) public {\n\n        require(!_jmjnftExists[_name],'Error - nft already exists');\n        jmjnft.push(_name);\n        uint _id = jmjnft.length - 1;\n\n        _mint(msg.sender, _id);\n\n        _jmjnftExists[_name] = true;\n    }\n\n    constructor() ERC721Connector('jmjNFT', 'JMJ'){}\n}",
  "sourcePath": "/home/dongju/Desktop/codestates/project/beb_02_JMJ/client/src/contracts/jmjNFT.sol",
  "compiler": {
    "name": "solc",
    "version": "0.8.7+commit.e28d00a7.Emscripten.clang"
  },
  "schemaVersion": "3.4.4",
  "updatedAt": "2022-02-17T02:25:59.284Z",
  "networkType": "ethereum",
  "devdoc": {
    "kind": "dev",
    "methods": {},
    "version": 1
  },
  "userdoc": {
    "kind": "user",
    "methods": {},
    "version": 1
  }
}